{
  "contractName": "Shop",
  "abi": [
    {
      "constant": false,
      "inputs": [
        {
          "internalType": "address",
          "name": "_wallet",
          "type": "address"
        },
        {
          "internalType": "uint256",
          "name": "_value",
          "type": "uint256"
        }
      ],
      "name": "setbalance",
      "outputs": [],
      "payable": false,
      "stateMutability": "nonpayable",
      "type": "function"
    },
    {
      "constant": true,
      "inputs": [],
      "name": "getBalance",
      "outputs": [
        {
          "internalType": "uint256",
          "name": "",
          "type": "uint256"
        }
      ],
      "payable": false,
      "stateMutability": "view",
      "type": "function"
    },
    {
      "constant": false,
      "inputs": [
        {
          "internalType": "address",
          "name": "_wallet",
          "type": "address"
        },
        {
          "internalType": "string",
          "name": "_fullname",
          "type": "string"
        },
        {
          "internalType": "string",
          "name": "_tel",
          "type": "string"
        },
        {
          "internalType": "string",
          "name": "_location",
          "type": "string"
        }
      ],
      "name": "buyDurian",
      "outputs": [],
      "payable": false,
      "stateMutability": "nonpayable",
      "type": "function"
    },
    {
      "constant": false,
      "inputs": [
        {
          "internalType": "address",
          "name": "_wallet",
          "type": "address"
        },
        {
          "internalType": "string",
          "name": "_fullname",
          "type": "string"
        },
        {
          "internalType": "string",
          "name": "_tel",
          "type": "string"
        },
        {
          "internalType": "string",
          "name": "_location",
          "type": "string"
        }
      ],
      "name": "buyCoconut",
      "outputs": [],
      "payable": false,
      "stateMutability": "nonpayable",
      "type": "function"
    },
    {
      "constant": false,
      "inputs": [
        {
          "internalType": "address",
          "name": "_wallet",
          "type": "address"
        },
        {
          "internalType": "string",
          "name": "_fullname",
          "type": "string"
        },
        {
          "internalType": "string",
          "name": "_tel",
          "type": "string"
        },
        {
          "internalType": "string",
          "name": "_location",
          "type": "string"
        }
      ],
      "name": "buypomelo",
      "outputs": [],
      "payable": false,
      "stateMutability": "nonpayable",
      "type": "function"
    },
    {
      "constant": false,
      "inputs": [
        {
          "internalType": "address",
          "name": "_wallet",
          "type": "address"
        }
      ],
      "name": "setuserzero",
      "outputs": [],
      "payable": false,
      "stateMutability": "nonpayable",
      "type": "function"
    },
    {
      "constant": true,
      "inputs": [],
      "name": "getdurianstock",
      "outputs": [
        {
          "internalType": "uint256",
          "name": "",
          "type": "uint256"
        }
      ],
      "payable": false,
      "stateMutability": "view",
      "type": "function"
    },
    {
      "constant": true,
      "inputs": [],
      "name": "getcoconutstock",
      "outputs": [
        {
          "internalType": "uint256",
          "name": "",
          "type": "uint256"
        }
      ],
      "payable": false,
      "stateMutability": "view",
      "type": "function"
    },
    {
      "constant": true,
      "inputs": [],
      "name": "getpomelostock",
      "outputs": [
        {
          "internalType": "uint256",
          "name": "",
          "type": "uint256"
        }
      ],
      "payable": false,
      "stateMutability": "view",
      "type": "function"
    },
    {
      "constant": false,
      "inputs": [
        {
          "internalType": "uint256",
          "name": "_dstock",
          "type": "uint256"
        },
        {
          "internalType": "uint256",
          "name": "_cstock",
          "type": "uint256"
        },
        {
          "internalType": "uint256",
          "name": "_pstock",
          "type": "uint256"
        }
      ],
      "name": "setstock",
      "outputs": [],
      "payable": false,
      "stateMutability": "nonpayable",
      "type": "function"
    }
  ],
  "bytecode": "0x60806040526040518060600160405280606461ffff16815260200160c861ffff16815260200161012c61ffff16815250600290600361003f9291906100a7565b5073d1faaf20f63c679bb5a481beb5352b0f1746fec1600360006101000a81548173ffffffffffffffffffffffffffffffffffffffff021916908373ffffffffffffffffffffffffffffffffffffffff1602179055503480156100a157600080fd5b5061011f565b8280548282559060005260206000209081019282156100e9579160200282015b828111156100e8578251829061ffff169055916020019190600101906100c7565b5b5090506100f691906100fa565b5090565b61011c91905b80821115610118576000816000905550600101610100565b5090565b90565b6112068061012e6000396000f3fe608060405234801561001057600080fd5b506004361061009e5760003560e01c8063850581b811610066578063850581b8146103545780638f84da7314610372578063b189b3951461057b578063c4ca2196146105bd578063cd9513dd146107c65761009e565b806312065fe0146100a357806319824940146100c157806321a78127146100df5780634cc22e9c146102e85780637ccd5d6c14610336575b600080fd5b6100ab61080a565b6040518082815260200191505060405180910390f35b6100c9610858565b6040518082815260200191505060405180910390f35b6102e6600480360360808110156100f557600080fd5b81019080803573ffffffffffffffffffffffffffffffffffffffff1690602001909291908035906020019064010000000081111561013257600080fd5b82018360208201111561014457600080fd5b8035906020019184600183028401116401000000008311171561016657600080fd5b91908080601f016020809104026020016040519081016040528093929190818152602001838380828437600081840152601f19601f820116905080830192505050505050509192919290803590602001906401000000008111156101c957600080fd5b8201836020820111156101db57600080fd5b803590602001918460018302840111640100000000831117156101fd57600080fd5b91908080601f016020809104026020016040519081016040528093929190818152602001838380828437600081840152601f19601f8201169050808301925050505050505091929192908035906020019064010000000081111561026057600080fd5b82018360208201111561027257600080fd5b8035906020019184600183028401116401000000008311171561029457600080fd5b91908080601f016020809104026020016040519081016040528093929190818152602001838380828437600081840152601f19601f82011690508083019250505050505050919291929050505061087d565b005b610334600480360360408110156102fe57600080fd5b81019080803573ffffffffffffffffffffffffffffffffffffffff16906020019092919080359060200190929190505050610ac0565b005b61033e610b0a565b6040518082815260200191505060405180910390f35b61035c610b2e565b6040518082815260200191505060405180910390f35b6105796004803603608081101561038857600080fd5b81019080803573ffffffffffffffffffffffffffffffffffffffff169060200190929190803590602001906401000000008111156103c557600080fd5b8201836020820111156103d757600080fd5b803590602001918460018302840111640100000000831117156103f957600080fd5b91908080601f016020809104026020016040519081016040528093929190818152602001838380828437600081840152601f19601f8201169050808301925050505050505091929192908035906020019064010000000081111561045c57600080fd5b82018360208201111561046e57600080fd5b8035906020019184600183028401116401000000008311171561049057600080fd5b91908080601f016020809104026020016040519081016040528093929190818152602001838380828437600081840152601f19601f820116905080830192505050505050509192919290803590602001906401000000008111156104f357600080fd5b82018360208201111561050557600080fd5b8035906020019184600183028401116401000000008311171561052757600080fd5b91908080601f016020809104026020016040519081016040528093929190818152602001838380828437600081840152601f19601f820116905080830192505050505050509192919290505050610b53565b005b6105bb6004803603606081101561059157600080fd5b81019080803590602001909291908035906020019092919080359060200190929190505050610d97565b005b6107c4600480360360808110156105d357600080fd5b81019080803573ffffffffffffffffffffffffffffffffffffffff1690602001909291908035906020019064010000000081111561061057600080fd5b82018360208201111561062257600080fd5b8035906020019184600183028401116401000000008311171561064457600080fd5b91908080601f016020809104026020016040519081016040528093929190818152602001838380828437600081840152601f19601f820116905080830192505050505050509192919290803590602001906401000000008111156106a757600080fd5b8201836020820111156106b957600080fd5b803590602001918460018302840111640100000000831117156106db57600080fd5b91908080601f016020809104026020016040519081016040528093929190818152602001838380828437600081840152601f19601f8201169050808301925050505050505091929192908035906020019064010000000081111561073e57600080fd5b82018360208201111561075057600080fd5b8035906020019184600183028401116401000000008311171561077257600080fd5b91908080601f016020809104026020016040519081016040528093929190818152602001838380828437600081840152601f19601f820116905080830192505050505050509192919290505050610e0d565b005b610808600480360360208110156107dc57600080fd5b81019080803573ffffffffffffffffffffffffffffffffffffffff169060200190929190505050611051565b005b6000806000803373ffffffffffffffffffffffffffffffffffffffff1673ffffffffffffffffffffffffffffffffffffffff1681526020019081526020016000206000015490508091505090565b600080600260018154811061086957fe5b906000526020600020015490508091505090565b60026000808673ffffffffffffffffffffffffffffffffffffffff1673ffffffffffffffffffffffffffffffffffffffff168152602001908152602001600020600001600082825403925050819055506002600080600360009054906101000a900473ffffffffffffffffffffffffffffffffffffffff1673ffffffffffffffffffffffffffffffffffffffff1673ffffffffffffffffffffffffffffffffffffffff1681526020019081526020016000206000016000828254019250508190555082600160008673ffffffffffffffffffffffffffffffffffffffff1673ffffffffffffffffffffffffffffffffffffffff168152602001908152602001600020600001908051906020019061099592919061112c565b5081600160008673ffffffffffffffffffffffffffffffffffffffff1673ffffffffffffffffffffffffffffffffffffffff16815260200190815260200160002060010190805190602001906109ec92919061112c565b5080600160008673ffffffffffffffffffffffffffffffffffffffff1673ffffffffffffffffffffffffffffffffffffffff1681526020019081526020016000206002019080519060200190610a4392919061112c565b5060018060008673ffffffffffffffffffffffffffffffffffffffff1673ffffffffffffffffffffffffffffffffffffffff16815260200190815260200160002060050160008282540192505081905550600160028081548110610aa357fe5b906000526020600020016000828254039250508190555050505050565b806000808473ffffffffffffffffffffffffffffffffffffffff1673ffffffffffffffffffffffffffffffffffffffff168152602001908152602001600020600001819055505050565b60008060028081548110610b1a57fe5b906000526020600020015490508091505090565b6000806002600081548110610b3f57fe5b906000526020600020015490508091505090565b60016000808673ffffffffffffffffffffffffffffffffffffffff1673ffffffffffffffffffffffffffffffffffffffff168152602001908152602001600020600001600082825403925050819055506001600080600360009054906101000a900473ffffffffffffffffffffffffffffffffffffffff1673ffffffffffffffffffffffffffffffffffffffff1673ffffffffffffffffffffffffffffffffffffffff1681526020019081526020016000206000016000828254019250508190555082600160008673ffffffffffffffffffffffffffffffffffffffff1673ffffffffffffffffffffffffffffffffffffffff1681526020019081526020016000206000019080519060200190610c6b92919061112c565b5081600160008673ffffffffffffffffffffffffffffffffffffffff1673ffffffffffffffffffffffffffffffffffffffff1681526020019081526020016000206001019080519060200190610cc292919061112c565b5080600160008673ffffffffffffffffffffffffffffffffffffffff1673ffffffffffffffffffffffffffffffffffffffff1681526020019081526020016000206002019080519060200190610d1992919061112c565b5060018060008673ffffffffffffffffffffffffffffffffffffffff1673ffffffffffffffffffffffffffffffffffffffff1681526020019081526020016000206004016000828254019250508190555060016002600181548110610d7a57fe5b906000526020600020016000828254039250508190555050505050565b826002600081548110610da657fe5b9060005260206000200160008282540192505081905550816002600181548110610dcc57fe5b90600052602060002001600082825401925050819055508060028081548110610df157fe5b9060005260206000200160008282540192505081905550505050565b601e6000808673ffffffffffffffffffffffffffffffffffffffff1673ffffffffffffffffffffffffffffffffffffffff16815260200190815260200160002060000160008282540392505081905550601e600080600360009054906101000a900473ffffffffffffffffffffffffffffffffffffffff1673ffffffffffffffffffffffffffffffffffffffff1673ffffffffffffffffffffffffffffffffffffffff1681526020019081526020016000206000016000828254019250508190555082600160008673ffffffffffffffffffffffffffffffffffffffff1673ffffffffffffffffffffffffffffffffffffffff1681526020019081526020016000206000019080519060200190610f2592919061112c565b5081600160008673ffffffffffffffffffffffffffffffffffffffff1673ffffffffffffffffffffffffffffffffffffffff1681526020019081526020016000206001019080519060200190610f7c92919061112c565b5080600160008673ffffffffffffffffffffffffffffffffffffffff1673ffffffffffffffffffffffffffffffffffffffff1681526020019081526020016000206002019080519060200190610fd392919061112c565b5060018060008673ffffffffffffffffffffffffffffffffffffffff1673ffffffffffffffffffffffffffffffffffffffff168152602001908152602001600020600301600082825401925050819055506001600260008154811061103457fe5b906000526020600020016000828254039250508190555050505050565b6000600160008373ffffffffffffffffffffffffffffffffffffffff1673ffffffffffffffffffffffffffffffffffffffff168152602001908152602001600020600301819055506000600160008373ffffffffffffffffffffffffffffffffffffffff1673ffffffffffffffffffffffffffffffffffffffff168152602001908152602001600020600401819055506000600160008373ffffffffffffffffffffffffffffffffffffffff1673ffffffffffffffffffffffffffffffffffffffff1681526020019081526020016000206005018190555050565b828054600181600116156101000203166002900490600052602060002090601f016020900481019282601f1061116d57805160ff191683800117855561119b565b8280016001018555821561119b579182015b8281111561119a57825182559160200191906001019061117f565b5b5090506111a891906111ac565b5090565b6111ce91905b808211156111ca5760008160009055506001016111b2565b5090565b9056fea265627a7a72315820d401ad7f27ab8919b7264818fea7911263482b4dd61f33bb744c9893d2eb330664736f6c63430005100032",
  "source": "pragma solidity >=0.5.0;        \r\ncontract Shop{                          // สร้าง contract ขื่อ shop โดยใช้ contract ขื่อ Token จาก\r\n\r\n    struct user {                       // \r\n        string fullname;                // อิคคิว\r\n        string tel;                     // 080-928-380\r\n        string location;                // sakjfpfap[]\r\n        uint durian;                    // 00\r\n        uint coconut;                   // 00\r\n        uint pomelo;                    // 00\r\n    }\r\n\r\n    struct balance {                       \r\n        uint amount;                  \r\n    }\r\n\r\n    mapping (address => balance) balanceMap;\r\n    mapping (address => user) userMap;\r\n    uint[] stock = [100,200,300]; // เก็บว่ามีผลไม้ในสต๊อกเท่าไร\r\n    address owner = 0xD1FAaF20F63c679bB5A481bEb5352B0f1746FEC1;\r\n    \r\n    \r\n    function setbalance(address _wallet,uint _value) public {\r\n        balanceMap[_wallet].amount = _value;                \r\n    }\r\n\r\n    function getBalance() public view returns (uint){\r\n        uint256 userbalance = balanceMap[msg.sender].amount;\r\n        return (userbalance);   \r\n    }\r\n\r\n    function buyDurian(address _wallet,string memory _fullname,string memory _tel,string memory _location) public {\r\n        balanceMap[_wallet].amount -= 30;\r\n        balanceMap[owner].amount += 30;\r\n        userMap[_wallet].fullname = _fullname;\r\n        userMap[_wallet].tel = _tel;\r\n        userMap[_wallet].location = _location;\r\n        userMap[_wallet].durian += 1;\r\n        stock[0] -= 1;\r\n    }\r\n\r\n    function buyCoconut(address _wallet,string memory _fullname,string memory _tel,string memory _location) public {\r\n        balanceMap[_wallet].amount -= 1;\r\n        balanceMap[owner].amount += 1;\r\n        userMap[_wallet].fullname = _fullname;\r\n        userMap[_wallet].tel = _tel;\r\n        userMap[_wallet].location = _location;\r\n        userMap[_wallet].coconut += 1;\r\n        stock[1] -= 1;\r\n    }\r\n\r\n    function buypomelo(address _wallet,string memory _fullname,string memory _tel,string memory _location) public {\r\n        balanceMap[_wallet].amount -= 2;\r\n        balanceMap[owner].amount += 2;\r\n        userMap[_wallet].fullname = _fullname;\r\n        userMap[_wallet].tel = _tel;\r\n        userMap[_wallet].location = _location;\r\n        userMap[_wallet].pomelo += 1;\r\n        stock[2] -= 1;\r\n    }\r\n\r\n    function setuserzero(address _wallet) public {\r\n        userMap[_wallet].durian = 0;\r\n        userMap[_wallet].coconut = 0;\r\n        userMap[_wallet].pomelo = 0;\r\n    }\r\n\r\n    function getdurianstock() public view returns (uint){            \r\n        uint durianstock = stock[0];\r\n        return (durianstock);                                                              \r\n    }\r\n\r\n    function getcoconutstock() public view returns (uint){            \r\n        uint coconutstock = stock[1];\r\n        return (coconutstock);                                                              \r\n    }\r\n\r\n    function getpomelostock() public view returns (uint){            \r\n        uint pomelostock = stock[2];\r\n        return (pomelostock);                                                              \r\n    }\r\n\r\n    function setstock(uint _dstock,uint _cstock,uint _pstock) public  {\r\n        stock[0] += _dstock;\r\n        stock[1] += _cstock;\r\n        stock[2] += _pstock;\r\n    }\r\n    \r\n    \r\n}\r\n",
  "sourcePath": "/Users/galalap/Desktop/IS_Lottowin_v2/contracts/Shop.sol",
  "compiler": {
    "name": "solc",
    "version": "0.5.16+commit.9c3226ce.Emscripten.clang"
  },
  "schemaVersion": "3.3.3",
  "updatedAt": "2021-07-22T20:06:22.989Z",
  "devdoc": {
    "methods": {}
  },
  "userdoc": {
    "methods": {}
  }
}